{
  "_format": "hh-sol-artifact-1",
  "contractName": "Dog",
  "sourceName": "contracts/Dogs.sol",
  "abi": [
    {
      "inputs": [],
      "stateMutability": "nonpayable",
      "type": "constructor"
    },
    {
      "inputs": [],
      "name": "_initialized",
      "outputs": [
        {
          "internalType": "bool",
          "name": "",
          "type": "bool"
        }
      ],
      "stateMutability": "view",
      "type": "function"
    },
    {
      "inputs": [],
      "name": "getNumberOfDogs",
      "outputs": [
        {
          "internalType": "uint256",
          "name": "",
          "type": "uint256"
        }
      ],
      "stateMutability": "view",
      "type": "function"
    },
    {
      "inputs": [],
      "name": "owner",
      "outputs": [
        {
          "internalType": "address",
          "name": "",
          "type": "address"
        }
      ],
      "stateMutability": "view",
      "type": "function"
    },
    {
      "inputs": [
        {
          "internalType": "uint256",
          "name": "toSet",
          "type": "uint256"
        }
      ],
      "name": "setNumberOfDogs",
      "outputs": [],
      "stateMutability": "nonpayable",
      "type": "function"
    }
  ],
  "bytecode": "0x608060405234801561001057600080fd5b5033600560006101000a81548173ffffffffffffffffffffffffffffffffffffffff021916908373ffffffffffffffffffffffffffffffffffffffff16021790555061030d806100616000396000f3fe608060405234801561001057600080fd5b506004361061004c5760003560e01c806314861b22146100515780631680a5ed1461006d5780633072cf601461008b5780638da5cb5b146100a9575b600080fd5b61006b60048036038101906100669190610182565b6100c7565b005b6100756100eb565b60405161008291906101be565b60405180910390f35b61009361010e565b6040516100a091906101f4565b60405180910390f35b6100b1610121565b6040516100be9190610250565b60405180910390f35b8060006040516100d6906102c2565b90815260200160405180910390208190555050565b6000806040516100fa906102c2565b908152602001604051809103902054905090565b600560149054906101000a900460ff1681565b600560009054906101000a900473ffffffffffffffffffffffffffffffffffffffff1681565b600080fd5b6000819050919050565b61015f8161014c565b811461016a57600080fd5b50565b60008135905061017c81610156565b92915050565b60006020828403121561019857610197610147565b5b60006101a68482850161016d565b91505092915050565b6101b88161014c565b82525050565b60006020820190506101d360008301846101af565b92915050565b60008115159050919050565b6101ee816101d9565b82525050565b600060208201905061020960008301846101e5565b92915050565b600073ffffffffffffffffffffffffffffffffffffffff82169050919050565b600061023a8261020f565b9050919050565b61024a8161022f565b82525050565b60006020820190506102656000830184610241565b92915050565b600081905092915050565b7f446f677300000000000000000000000000000000000000000000000000000000600082015250565b60006102ac60048361026b565b91506102b782610276565b600482019050919050565b60006102cd8261029f565b915081905091905056fea2646970667358221220a3d43cf6b8ac9ce7475b69a2b30d0b963e847f124441afceace1e8a64a9af3c164736f6c63430008130033",
  "linkReferences": {},
  "deployedLinkReferences": {}
}